{
  "transactions": [
    {
      "hash": "0xdbba7db3f2b7f9528968a725473705e2f6e3a0f446b7ad2d9c264ddf3d0b20e0",
      "transactionType": "CALL",
      "contractName": null,
      "contractAddress": "0x2bbf5807b765e8a299c3c5b9044db66c583c5595",
      "function": "publishRiskParameterUpdate(string,bytes,string,address,bytes)",
      "arguments": [
        "21a03210bb2b4fa9a8359651aef1bfa02",
        "0x000000000000000000000000000000000000000000000000000000000000002000000000000000000000000000000000000000000000000000000000000000083078306634323430000000000000000000000000000000000000000000000000",
        "maxOpenInterestForLongs",
        "0x08b25A2a89036d298D6dB8A74ace9d1ce6Db15E5",
        "0x0000000000000000000000000000000000000000000000000000000000000020000000000000000000000000000000000000000000000000000000000000014230783030343638636233616139303336666630306133316639303838373438356438376531656530323939653963316531613833386665353131306334666261666230303030303030303030303030303030303030303030303030303030303030303030303030303030303030303030303030303030303030303030303030303430303030303030303030303030303030303030303030303030303030303030303030303030303030303030303030303030303030303030303030303030303034303030303030303030303030303030303030303030303030303038623235613261383930333664323938643664623861373461636539643163653664623135653530303030303030303030303030303030303030303030303030303030303030303030303030303030303030303030303030303030303030303030303030303031000000000000000000000000000000000000000000000000000000000000"
      ],
      "transaction": {
        "from": "0xc26d7ef337e01a5cc5498d3cc2ff0610761ae637",
        "to": "0x2bbf5807b765e8a299c3c5b9044db66c583c5595",
        "gas": "0x19fb26",
        "value": "0x0",
        "input": "0xb0be250500000000000000000000000000000000000000000000000000000000000000a00000000000000000000000000000000000000000000000000000000000000100000000000000000000000000000000000000000000000000000000000000018000000000000000000000000008b25a2a89036d298d6db8a74ace9d1ce6db15e500000000000000000000000000000000000000000000000000000000000001c0000000000000000000000000000000000000000000000000000000000000002132316130333231306262326234666139613833353936353161656631626661303200000000000000000000000000000000000000000000000000000000000000000000000000000000000000000000000000000000000000000000000000006000000000000000000000000000000000000000000000000000000000000000200000000000000000000000000000000000000000000000000000000000000008307830663432343000000000000000000000000000000000000000000000000000000000000000000000000000000000000000000000000000000000000000176d61784f70656e496e746572657374466f724c6f6e677300000000000000000000000000000000000000000000000000000000000000000000000000000001a00000000000000000000000000000000000000000000000000000000000000020000000000000000000000000000000000000000000000000000000000000014230783030343638636233616139303336666630306133316639303838373438356438376531656530323939653963316531613833386665353131306334666261666230303030303030303030303030303030303030303030303030303030303030303030303030303030303030303030303030303030303030303030303030303430303030303030303030303030303030303030303030303030303030303030303030303030303030303030303030303030303030303030303030303030303034303030303030303030303030303030303030303030303030303038623235613261383930333664323938643664623861373461636539643163653664623135653530303030303030303030303030303030303030303030303030303030303030303030303030303030303030303030303030303030303030303030303030303031000000000000000000000000000000000000000000000000000000000000",
        "nonce": "0x24",
        "chainId": "0xa869"
      },
      "additionalContracts": [],
      "isFixedGasLimit": false
    }
  ],
  "receipts": [
    {
      "status": "0x1",
      "cumulativeGasUsed": "0x12cf50",
      "logs": [
        {
          "address": "0x2bbf5807b765e8a299c3c5b9044db66c583c5595",
          "topics": [
            "0xf4ffa2dade992ad974b9415d5dc108fa2a4a6de3822a3a0bb50d5e6991bdb8ae",
            "0x9417971360ae814691fbf5567a17937987081a85bcc384e09c11daf472122726",
            "0x0000000000000000000000000000000000000000000000000000000000000001",
            "0x00000000000000000000000008b25a2a89036d298d6db8a74ace9d1ce6db15e5"
          ],
          "data": "0x00000000000000000000000000000000000000000000000000000000000000a0000000000000000000000000000000000000000000000000000000000000010000000000000000000000000000000000000000000000000000000000000001800000000000000000000000000000000000000000000000000000000066d0b2a500000000000000000000000000000000000000000000000000000000000001a00000000000000000000000000000000000000000000000000000000000000021323161303332313062623262346661396138333539363531616566316266613032000000000000000000000000000000000000000000000000000000000000000000000000000000000000000000000000000000000000000000000000000060000000000000000000000000000000000000000000000000000000000000002000000000000000000000000000000000000000000000000000000000000000083078306634323430000000000000000000000000000000000000000000000000000000000000000000000000000000000000000000000000000000000000000000000000000000000000000000000000000000000000000000000000000001a00000000000000000000000000000000000000000000000000000000000000020000000000000000000000000000000000000000000000000000000000000014230783030343638636233616139303336666630306133316639303838373438356438376531656530323939653963316531613833386665353131306334666261666230303030303030303030303030303030303030303030303030303030303030303030303030303030303030303030303030303030303030303030303030303430303030303030303030303030303030303030303030303030303030303030303030303030303030303030303030303030303030303030303030303030303034303030303030303030303030303030303030303030303030303038623235613261383930333664323938643664623861373461636539643163653664623135653530303030303030303030303030303030303030303030303030303030303030303030303030303030303030303030303030303030303030303030303030303031000000000000000000000000000000000000000000000000000000000000",
          "blockHash": "0xd1a1624b8f41e1df9092c53f0e661428a46fdbdd895ffb655bb0e9378883f05c",
          "blockNumber": "0x21fc6a9",
          "transactionHash": "0xdbba7db3f2b7f9528968a725473705e2f6e3a0f446b7ad2d9c264ddf3d0b20e0",
          "transactionIndex": "0x0",
          "logIndex": "0x0",
          "removed": false
        }
      ],
      "logsBloom": "0x00000000000400000000000000200000000000000000000000000000000000000000000000000000000000000000000000000000000000000000000000040000000000000000000000000000001000000000000000040000000000000000000000000000000000000040000000000000000008000000000000000000000000000000000000000000000000000000020000004000000000000000000000000000000000000000000000000000000000000000000000000000000040000000000000040000000000080000000000000010000000000000000000000000000040000000000000000000000000000000000000000000000000000000000000000000",
      "type": "0x2",
      "transactionHash": "0xdbba7db3f2b7f9528968a725473705e2f6e3a0f446b7ad2d9c264ddf3d0b20e0",
      "transactionIndex": "0x0",
      "blockHash": "0xd1a1624b8f41e1df9092c53f0e661428a46fdbdd895ffb655bb0e9378883f05c",
      "blockNumber": "0x21fc6a9",
      "gasUsed": "0x12cf50",
      "effectiveGasPrice": "0x9502f9000",
      "from": "0xc26d7ef337e01a5cc5498d3cc2ff0610761ae637",
      "to": "0x2bbf5807b765e8a299c3c5b9044db66c583c5595",
      "contractAddress": null
    }
  ],
  "libraries": [],
  "pending": [],
  "returns": {},
  "timestamp": 1724953260,
  "chain": 43113,
  "commit": "5662e4d"
}